:100000008DC19FC19EC19DC19CC19BC19AC199C117
:1000100098C197C196C195C170C393C192C10000A8
:1000200000000000005F00000007000700147F14BC
:100030007F14242A7F2A122313086462364955222A
:10004000500005030000001C2241000041221C005A
:1000500014083E081408083E080800503000000844
:1000600008080808006060000020100804023E51E3
:1000700049453E00427F4000426151494621414589
:100080004B311814127F1027454545393C4A4949E0
:100090003001710905033649494936064949291E87
:1000A00000363600000056360000081422410014C5
:1000B0001414141400412214080201510906324993
:1000C00079413E7E1111117E7F494949363E4141B9
:1000D00041227F4141221C7F494949417F09090949
:1000E000013E4149497A7F0808087F00417F41006D
:1000F0002040413F017F081422417F404040407F23
:10010000020C027F7F0408107F3E4141413E7F097F
:100110000909063E4151215E7F0919294646494990
:10012000493101017F01013F4040403F1F204020F5
:100130001F3F4038403F63140814630708700807E6
:100140006151494543007F414100020408102000ED
:1001500041417F0004020102044040404040000150
:1001600002040020545454787F48444438384444AE
:100170004420384444487F3854545418087E0901B8
:10018000020C5252523E7F0804047800447D400025
:100190002040443D007F1028440000417F40007C07
:1001A000041804787C0804047838444444387C14E7
:1001B000141408081414187C7C08040408485454C7
:1001C0005420043F4440203C4040207C1C204020E0
:1001D0001C3C4030403C44281028440C5050503CBB
:1001E0004464544C44000836410000007F00000085
:1001F000413608001008081008784641467800F09B
:10020000FCFE060206FEFCF00000071F3F30203017
:100210003F1F07000000080CFCFEFE00000000006D
:100220002020203F3F3F20202000000C0E0602022D
:1002300086FE7C38000030383C36333130303800B0
:10024000000C0E868282C6FE7C38000018383020F2
:1002500020313F1F0E000000C0201804FEFEFE00EB
:10026000000003020202223F3F3F220200007E7E86
:100270004646C6C6860000001838302020303F1F92
:100280000F0000C0F0F8FC4CC6C2820000000F1F37
:100290003F3020303F1F0F00000606060606C6F658
:1002A0003E0E00000000303C0F030000000000384C
:1002B0007CFEC682C6FE7C3800000E1F3F31203116
:1002C0003F1F0E000078FCFE860286FEFCF8000050
:1002D00000002121311D1F0F0300F0F80C0602025F
:1002E00002020E0C0003070C18101010101C0C005A
:1002F00000060609090909060600000000000000C2
:10030000000000000000008080808080808080806D
:1003100000000101010101010101010011241FBEC2
:10032000CFE5D2E0DEBFCDBF10E0A0E6B0E0E2E86E
:10033000F8E002C005900D92A43DB107D9F7ECD1C9
:100340009EC25ECE20E031E0482F50E096B39695F5
:10035000969596959327692F617070E064177507DD
:1003600059F42F5F203541F000000000000000002C
:10037000000000000000EACF822F08959F92AF9204
:10038000BF92CF92DF92EF92FF920F931F93CF9382
:10039000DF9300D000D01F92CDB7DEB77C018B0178
:1003A000CE0101966C0185E0F60111928A95E9F77C
:1003B000BB9AC39820ED3AEC3A95F1F72A95E1F70C
:1003C0000000C39ABB9880E0BDDF87FF02C08FEFBB
:1003D0003DC081E0B7DF87FDFACF80E0B3DF87FD66
:1003E000F6CF95E0992E9C0C88E0A82E81E0AADF3C
:1003F000F601B080BB0CB08280E0A4DF853124F030
:100400008B2D8160F6018083AA94A110EFCFFFEFBE
:10041000CF1ADF0A9C10E8CF49815B818D8190E083
:100420002A8130E0240F311D250F311D6C81260FEC
:10043000311D3327F7018217930721F45083F80108
:10044000408303C01082F801108280E00F900F906B
:100450000F900F900F90DF91CF911F910F91FF9010
:10046000EF90DF90CF90BF90AF909F900895CF9383
:10047000DF939FEF920FE1E0F0E0DF0102C0AA0FEF
:10048000BB1F9A95E2F7EF0102C0CC0FDD1F6A9502
:10049000E2F7BE019C2F082E01C0EE0F0A94EAF786
:1004A0003E2F6095E0952223A1F0ED01C423D523D2
:1004B00088B3CD2B11F0892B01C0862388BB88B36C
:1004C000832B88BBB695A795215088B38E2388BB14
:1004D000EACFDF91CF910895C19A482F50E028E0EC
:1004E00062E084E0C4CFC198482F50E028E062E089
:1004F00084E0BDCF88B3887E88BB87B3876187BB24
:1005000028E635EE3A95F1F72A95E1F7C09A81E2AF
:10051000EADF81EAE8DF84E0E6DF84E1E4DF80E22D
:10052000E2DF8CE0E0CF1F93CF93DF93182F11957C
:1005300080E8D9DF80E4D7DFC8EFD1E0812FCCDFBE
:100540002197E1F7DF91CF911F9108957F928F92CC
:100550009F92AF92BF92CF92DF92EF92FF920F9352
:100560001F93CF93DF93C82F162F922E842F90E0E6
:1005700066E170E067D182509E4F7C01CC2ED12C79
:100580008FEFC81AD80AE12FE0688E2E86E0782E09
:100590004C2F50E0C416D50604F1882DA4DF8C2F13
:1005A000672D61D1892F80649EDF5701FBE0AF0E7C
:1005B000B11CF701D4918D2F011180958DDF992009
:1005C00021F08D2F0111809587DFFFEFEF1AFF0AD1
:1005D000EA14FB0471F7CF5FDBCF143580F4802F72
:1005E0008195DF91CF911F910F91FF90EF90DF9058
:1005F000CF90BF90AF909F908F907F906DCFDF9105
:10060000CF911F910F91FF90EF90DF90CF90BF900F
:10061000AF909F908F907F900895EF92FF920F93ED
:100620001F93CF93DF9300D0CDB7DEB7182F362FAF
:10063000E22E863008F03CC06435D0F580EE840FA1
:10064000803608F04FE3832F80683A8349834BDF7D
:10065000812F66E008D1892F806445DF4981842F8E
:1006600090E0809765E070E0EDD08C01025E1F4F56
:100670003A8185E0F82EF30EF8018491E11080951F
:100680003A832ADF3A813F5F0F5F1F4F3F1519F012
:10069000343591F70DC0343559F08E2D81950F907A
:1006A0000F90DF91CF911F910F91FF90EF9014CF9A
:1006B0000F900F90DF91CF911F910F91FF90EF90CE
:1006C0000895FF920F931F93CF93DF93D82FC62FD8
:1006D000F22E8A01F80141918F01442341F0C43583
:1006E00030F42F2D6C2F8D2F98DFCA5FF3CFDF9161
:1006F000CF911F910F91FF9008951F920F920FB607
:100700000F9211248F9381B5806481BD8F910F90DA
:100710000FBE0F901F901895CF93DF9300D01F92BC
:10072000CDB7DEB7E7DE80E0FEDE20E040E650E059
:1007300060E080E0C6DF20E04FE650E060E081E06E
:10074000C0DF20E04EE750E060E082E0BADF20E06A
:100750004DE850E060E083E0B4DF20E04CE950E099
:1007600060E084E0AEDF20E04AEA50E060E085E04F
:10077000A8DFF89414BE88E181BD11BC80E681BD7C
:10078000789485B7877E806185BF00E010E08AE0BD
:10079000F82E85B7806285BF889585B78F7D85BF28
:1007A000F894BB98C39ABE016E5F7F4FCE0101964D
:1007B000E5DD8981811304C09A81901709F43FC057
:1007C00080E0B1DE20E047EB50E060E080E079DFE0
:1007D00089816F2D48D000E021E0482F6CE081E056
:1007E0009B83B4DE21E09B81492F62E281E0AEDE93
:1007F00020E04BE068E381E0A9DE20E04AE062E42B
:1008000081E0A4DE20E045EC50E060E083E059DFC9
:100810008A816F2D28D021E0482F6CE084E09B83F3
:1008200095DE21E09B81492F62E284E08FDE20E0AB
:1008300042ED50E06FE385E044DF0A8189817894DE
:10084000182FA7CF0024552704C0080E591F880F62
:10085000991F009729F076956795B8F37105B9F758
:10086000802D952F0895991B79E004C0991F961744
:1008700008F0961B881F7A95C9F780950895F8941B
:02088000FFCFA8
:10088200205465726D6F6D657472206E6120006315
:100892007A756A6E696B752044485431310020695B
:1008A200206B6F6E74726F6C65727A65004154547E
:1008B200494E5938352C2074656D70006F642030B4
:1008C20020646F202B31303043007A6173696C6190
:1008D2006E696520335600202054454D50455241E3
:1008E2005455524100202057494C474F544E4F53C4
:0408F200430025009A
:00000001FF
