:100000008DC19FC19EC19DC19CC19BC19AC199C117
:1000100098C197C196C195C180C393C192C1000098
:1000200000000000005F00000007000700147F14BC
:100030007F14242A7F2A122313086462364955222A
:10004000500005030000001C2241000041221C005A
:1000500014083E081408083E080800503000000844
:1000600008080808006060000020100804023E51E3
:1000700049453E00427F4000426151494621414589
:100080004B311814127F1027454545393C4A4949E0
:100090003001710905033649494936064949291E87
:1000A00000363600000056360000081422410014C5
:1000B0001414141400412214080201510906324993
:1000C00079413E7E1111117E7F494949363E4141B9
:1000D00041227F4141221C7F494949417F09090949
:1000E000013E4149497A7F0808087F00417F41006D
:1000F0002040413F017F081422417F404040407F23
:10010000020C027F7F0408107F3E4141413E7F097F
:100110000909063E4151215E7F0919294646494990
:10012000493101017F01013F4040403F1F204020F5
:100130001F3F4038403F63140814630708700807E6
:100140006151494543007F414100020408102000ED
:1001500041417F0004020102044040404040000150
:1001600002040020545454787F48444438384444AE
:100170004420384444487F3854545418087E0901B8
:10018000020C5252523E7F0804047800447D400025
:100190002040443D007F1028440000417F40007C07
:1001A000041804787C0804047838444444387C14E7
:1001B000141408081414187C7C08040408485454C7
:1001C0005420043F4440203C4040207C1C204020E0
:1001D0001C3C4030403C44281028440C5050503CBB
:1001E0004464544C44000836410000007F00000085
:1001F000413608001008081008784641467800F09B
:10020000FCFE060206FEFCF00000071F3F30203017
:100210003F1F07000000080CFCFEFE00000000006D
:100220002020203F3F3F20202000000C0E0602022D
:1002300086FE7C38000030383C36333130303800B0
:10024000000C0E868282C6FE7C38000018383020F2
:1002500020313F1F0E000000C0201804FEFEFE00EB
:10026000000003020202223F3F3F220200007E7E86
:100270004646C6C6860000001838302020303F1F92
:100280000F0000C0F0F8FC4CC6C2820000000F1F37
:100290003F3020303F1F0F00000606060606C6F658
:1002A0003E0E00000000303C0F030000000000384C
:1002B0007CFEC682C6FE7C3800000E1F3F31203116
:1002C0003F1F0E000078FCFE860286FEFCF8000050
:1002D00000002121311D1F0F0300F0F80C0602025F
:1002E00002020E0C0003070C18101010101C0C005A
:1002F00000060609090909060600000000000000C2
:10030000000000000000008080808080808080806D
:1003100000000101010101010101010011241FBEC2
:10032000CFE5D2E0DEBFCDBF10E0A0E6B0E0ECED5F
:10033000F8E002C005900D92AC37B107D9F7FCD1B7
:10034000CBC25ECE20E031E0482F50E096B39695C8
:10035000969596959327692F617070E064177507DD
:1003600029F42F5F203511F00000F0CF822F08957F
:10037000BB98C39A08955F926F927F928F929F92DB
:10038000AF92BF92CF92DF92EF92FF920F931F93A3
:10039000CF93DF9300D000D01F92CDB7DEB75C01C2
:1003A0004B016A0179018E010F5F1F4F85E0F80153
:1003B00011928A95E9F7BB9AC3982AE139EF3A95E9
:1003C000F1F72A95E1F7C39ABB9880E0BBDF87FF7E
:1003D00002C08FEF46C081E0B5DF87FDFACF80E035
:1003E000B1DF87FDF6CF95E0592E500E88E0682EDC
:1003F00081E0A8DFF8017080770C708280E0A2DFD6
:10040000823024F0872D8160F80180836A94611026
:10041000EFCF0F5F1F4F5012E9CF39812A815B81E7
:100420004C818D8190E0E22FF0E0E30FF11DE50FAC
:10043000F11DE40FF11DFF278E179F0749F4F50109
:100440005083F4014083F6013083F701208308C014
:10045000F5011082F4011082F6011082F70110827A
:1004600080E00F900F900F900F900F90DF91CF9141
:100470001F910F91FF90EF90DF90CF90BF90AF90C2
:100480009F908F907F906F905F900895CF93DF93B0
:100490009FEF920FE1E0F0E0DF0102C0AA0FBB1F67
:1004A0009A95E2F7EF0102C0CC0FDD1F6A95E2F7E3
:1004B000BE019C2F082E01C0EE0F0A94EAF73E2FD2
:1004C0006095E0952223A1F0ED01C423D52388B3E4
:1004D000CD2B11F0892B01C0862388BB88B3832BD9
:1004E00088BBB695A795215088B38E2388BBEACFE9
:1004F000DF91CF910895C19A482F50E028E062E043
:1005000084E0C4CFC198482F50E028E062E084E046
:10051000BDCF88B3887E88BB87B3876187BB2DE05A
:100520003CEF3A95F1F72A95E1F70000C09A81E295
:10053000E9DF81EAE7DF84E0E5DF84E1E3DF80E211
:10054000E1DF8CE0DFCF1F93CF93DF93182F11955E
:1005500080E8D8DF80E4D6DFC8EFD1E0812FCBDFA1
:100560002197E1F7DF91CF911F9108957F928F92AC
:100570009F92AF92BF92CF92DF92EF92FF920F9332
:100580001F93CF93DF93C82F162F922E842F90E0C6
:1005900066E170E070D182509E4F7C01CC2ED12C50
:1005A0008FEFC81AD80AE12FE0688E2E86E0782EE9
:1005B0004C2F50E0C416D50604F1882DA3DF8C2FF4
:1005C000672D6AD1892F80649DDF5701FBE0AF0E54
:1005D000B11CF701D4918D2F011180958CDF9920EA
:1005E00021F08D2F0111809586DFFFEFEF1AFF0AB2
:1005F000EA14FB0471F7CF5FDBCF143580F4802F52
:100600008195DF91CF911F910F91FF90EF90DF9037
:10061000CF90BF90AF909F908F907F906CCFDF91E5
:10062000CF911F910F91FF90EF90DF90CF90BF90EF
:10063000AF909F908F907F900895EF92FF920F93CD
:100640001F93CF93DF9300D0CDB7DEB7182F362F8F
:10065000E22E863008F03CC06435D0F580EE840F81
:10066000803608F04FE3832F80683A8349834ADF5E
:10067000812F66E011D1892F806444DF4981842F66
:1006800090E0809765E070E0F6D08C01025E1F4F2D
:100690003A8185E0F82EF30EF8018491E1108095FF
:1006A0003A8329DF3A813F5F0F5F1F4F3F1519F0F3
:1006B000343591F70DC0343559F08E2D81950F905A
:1006C0000F90DF91CF911F910F91FF90EF9013CF7B
:1006D0000F900F90DF91CF911F910F91FF90EF90AE
:1006E0000895FF920F931F93CF93DF93D82FC62FB8
:1006F000F22E8A01F80141918F01442341F0C43563
:1007000030F42F2D6C2F8D2F98DFCA5FF3CFDF9140
:10071000CF911F910F91FF9008951F920F920FB6E6
:100720000F9211248F9381B5806481BD8F910F90BA
:100730000FBE0F901F901895CF93DF9300D000D07D
:100740001F92CDB7DEB7E5DEF89414BE88E181BD17
:1007500011BC80E681BD789485B7877E806185BFB6
:10076000A12CB12C00E010E024E6622E712C3AE0BE
:10077000832E912C85B7806285BF889585B78F7D44
:1007800085BFF894F5DD9E012F5F3F4FAE014E5FB0
:100790005F4FBE016D5F7F4FCE010496ECDD8C8113
:1007A00087FF04C080588C8331E001C030E0EC80CA
:1007B000F12CFE2CEE248B81E80EF11CCA80D12C8A
:1007C000DC2CCC248981C80ED11CE016F10621F462
:1007D000CA14DB0409F44CC080E03D83B4DE20E0A1
:1007E00040E650E060E080E07CDFC701B30160D00C
:1007F000B62EB4015DD0162F3D81313031F400E0CA
:1008000021E04CE060E081E0B1DE00E021E04B2D32
:100810006CE081E0ABDE21E0412F62E281E0A6DE08
:1008200020E04BE068E381E0A1DE20E04AE062E402
:1008300081E09CDE20E04EE650E060E083E051DFA6
:10084000C601B30135D0462F5C0121E06CE084E0A5
:100850008DDEC501B4012CD0462F21E062E284E098
:1008600085DE20E049E750E06FE385E03ADF56019E
:10087000789487017FCF0024552704C0080E591FA4
:10088000880F991F009729F076956795B8F3710541
:10089000B9F7802D952F0895991B79E004C0991F11
:1008A000961708F0961B881F7A95C9F780950895CA
:1008B000AA1BBB1B51E107C0AA1FBB1FA617B70786
:1008C00010F0A61BB70B881F991F5A95A9F78095A2
:0C08D0009095BC01CD010895F894FFCF75
:1008DC00202054454D50455241545552450020203E
:0C08EC0048554D4944495459002500006E
:00000001FF
